:020000040000FA
:10000000E8FFFF1F650300006D0300006F030000A1
:1000100000000000000000000000000000000000E0
:10002000000000000000000000000000710300005C
:1000300000000000000000007303000075030000D2
:1000400077030000770300007703000077030000C8
:1000500077030000770300007703000077030000B8
:1000600077030000770300007703000077030000A8
:1000700011040000770300007703000077030000FD
:1000800077030000770300002507000077030000D6
:100090007703000077030000770300007703000078
:1000A0007703000077030000770300007703000068
:1000B0007703000077030000770300007703000058
:1000C00000F002F800F03EF80CA030C80838241800
:1000D0002D18A246671EAB4654465D46AC4201D180
:1000E00000F030F87E460F3E0FCCB6460126334274
:1000F00000D0FB1AA246AB4633431847640A0000FF
:10010000840A0000103A02D378C878C1FAD852079E
:1001100001D330C830C101D504680C6070470000BD
:100120000023002400250026103A01D378C1FBD813
:10013000520700D330C100D50B6070471FB51FBDFB
:1001400010B510BD00F02BF91146FFF7F7FF00F0D6
:10015000A3F900F043F903B4FFF7F2FF03BC00F08A
:1001600049F9000010B5002030E04A49896B0201CE
:10017000494BD21892681143464A91639115020186
:10018000D21852680301444C1B191B7B9B00D150B1
:10019000010122465158496902012346D218137BB6
:1001A00001229A401143020123469A5851610101EC
:1001B0001A46515849680201D218137B01229A400D
:1001C0001143020123469A585160401C0328CCDB9E
:1001D00010BD10B5002904D0012912D0022930D158
:1001E0001FE002012C4B9A58526803012A4C1B193C
:1001F0001C7B0123A3401A430301274CE3585A6098
:100200001FE00201244B9A5892680301224C1B19EB
:100210001C7B0123A3401A4303011F4CE3589A603F
:100220000FE002011C4B9A58D26803011A4C1B19AB
:100230001C7B0123A3401A430301174CE358DA60E7
:1002400000BF00BF10BD30B505460C460121284651
:10025000FFF7BFFF002001E000BF401C0F496143D2
:100260008142F9D800212846FFF7B3FF002001E0C2
:1002700000BF401C094961438142F9D830BD10B527
:10028000002404E0E0B26421FFF7DDFF641C032CCE
:10029000F8DB10BD0080044000FCFF1F10270000A9
:1002A0002B48406B012189020843294948630846CD
:1002B000806B091508432649886308464068012178
:1002C00089060843224948604815224948608860E9
:1002D0002148C0780C2188431F49C870002008704D
:1002E0005B2048700846807A4009400188720846C1
:1002F000807A0F210843184988720846C07A022183
:1003000008431549C8720846C0782021084312499D
:10031000C8700846C0780C2108430F49C8700C20EB
:10032000002809DB00BF00BFC206D20E01219140A8
:100330000A4A116000BF00BF00BF0C20002805DB87
:10034000C206D20E01219140054A116000BF7047DC
:100350000080044000A0044000A0064000E100E04E
:1003600080E200E00748804707480047FEE7FEE7D5
:10037000FEE7FEE7FEE7FEE704480549034A054BB2
:1003800070470000F5070000C1000000E8FCFF1FF7
:10039000E8FFFF1FE8FCFF1F704770477047754676
:1003A00000F024F8AE46050069465346C008C00078
:1003B000854618B020B5FFF7DFFF60BC002749086D
:1003C000B6460026C0C5C0C5C0C5C0C5C0C5C0C5ED
:1003D000C0C5C0C5403D49008D46704710B50446B4
:1003E000C046C0462046FFF7B6FE10BD0048704725
:1003F00088FCFF1F01491820ABBEFEE72600020063
:10040000FFFFFFFFFFFFFFFFFFFFFFFFFEFFFFFFFD
:10041000664800792021084000283CD06348C07914
:100420006349087063480078002825D108460078A1
:100430000A2816D06048007800281DD108460078A8
:100440005E495F4A127888545D480078401C5C49D8
:1004500008700846007810280ED10120564908700F
:100460000AE055480078002803D15449544A1278CC
:10047000885401204F4908700C20002809DB00BF78
:1004800000BFC206D20E012191404E4A116000BF4A
:1004900000BF00BF00BF7047FFF764FE00F0FBF82D
:1004A000FFF7FEFE012040024749486040004860D7
:1004B0007AE030BF3F480078002875D03E48007889
:1004C000002820D000240CE000BF384800798021AB
:1004D00008400028F9D03D48005D3449C871601CCF
:1004E000C4B23A48005D0028EED100BF2F48007921
:1004F000802108400028F9D00A202C49C87100202A
:100500002D4908704BE032492C4800F029FA0028A8
:1005100003D1642000F0FFF841E02E49274800F0A5
:100520001FFA002802D100F0F6F838E02A492348E3
:1005300000F016FA002807D11935642D00DB642578
:10054000284600F0E8F82AE024491C4800F008FAA0
:10055000002807D1193D002D00DC0025284600F0B9
:10056000DAF81CE000240CE000BF1048007980217C
:1005700008400028F9D01A48005D0C49C871601C79
:10058000C4B21748005D0028EED100BF07480079CB
:10059000802108400028F9D00A200449C8710020B1
:1005A000074908700349087083E7000000A006406F
:1005B00064FCFF1F66FCFF1F67FCFF1F78FCFF1F2A
:1005C00063FCFF1F00E100E040F00F4053FCFF1F01
:1005D00030FCFF1F35FCFF1F41FCFF1F3BFCFF1FD2
:1005E00047FCFF1F10B57648C06B01214906084340
:1005F0007349C863084640680121090608437049E9
:1006000048600846806B491508436D498863481562
:100610006C4908606C480068072108436A49086013
:1006200008460068082108436749086008460068D2
:1006300020218843644908600846C0683021884307
:100640006149C8600846C0680C2108435E49C8601B
:100650000846C068402108435B49C8600121122058
:1006600000F076F81220002805DBC206D20E012128
:100670009140564A116000BF1220002809DB00BFDC
:1006800000BFC206D20E01219140514A116000BF45
:1006900000BF00BF10BD4A48C06B012109060843D6
:1006A0004749C86308464068012109060843444990
:1006B00048600846806B091508434149886348151E
:1006C0004449086248628862434800680721084339
:1006D0004149086008460068082108433E4908600F
:1006E0006420886008460068202188433A490860F1
:1006F0000846406A24210843374948623221364877
:10070000816201203549087070473548008870477C
:1007100034480088704731490978002901D02E49B2
:100720008862704730480088304908802648006950
:100730002D490880084600882C490988401A284914
:1007400008802148C068802108431F49C86070475D
:1007500010B5002819DB1E4A03231B02D218830898
:100760009B00D2588307DC0EFF23A3409A438B07DC
:100770001B0E8407E40EA3401A43154B03242402E6
:100780001B198408A4001A5118E0194A03071B0F0B
:10079000083B9B089B00D2588307DC0EFF23A34035
:1007A0009A438B071B0E8407E40EA3401A43104B99
:1007B0000407240F083CA408A4001A5110BD00002F
:1007C00000800440009004400090034080E200E07C
:1007D00000E100E000A004400080034070FCFF1F27
:1007E00068FCFF1F6EFCFF1F6AFCFF1F6CFCFF1FF5
:1007F0001CED00E00020534908600120000451492D
:10080000C0394860062050490870002048700846EA
:10081000C0788006800E202108434B49C870802094
:100820004A49087000BF48488079102108400028D4
:10083000F9D000BF444880790C2108400028F9D144
:10084000704770B540480078C0210840002847D163
:100850003D4800780421084000280ED14C033A4856
:10086000007838210840C10801208840C5B22946D7
:10087000204600F0B9F8044601E00124E4033248C0
:10088000C078E0210840C106C90E002926D14011D8
:10089000030000F057F90805090D1115191D202353
:1008A0000520C00144431AE005200002444316E03D
:1008B0000F20C001444312E00520400244430EE0F3
:1008C000B720800044430AE0B720C000444306E05C
:1008D0001F48444303E01F48444300E000BF24E0B6
:1008E00019480078C0210840402815D116484078A2
:1008F000C007C00F002802D10124E40315E012480C
:10090000007A0E2210404208012090400146124811
:1009100000F06AF8044608E00B480078C02108405F
:10092000802801D1040200E070BD0648C03840684C
:10093000000F411C204600F057F80849086000BF2E
:10094000F2E70000008104400040064000500640ED
:1009500095080000710B000000093D0074FCFF1FAA
:10096000024670B50A4392072AD11E4DEE0104C813
:1009700008C9541B9443344017D0D0B2D9B2401A9E
:100980002106014310D190B299B2401A21040143CB
:100990000AD110021902000A090A401A2102014371
:1009A00002D1100E190E401A70BD9A42DFD010BA53
:1009B00019BA884201D9012070BD0020C04370BD22
:1009C00002780B78401C491C002A09D09A4207D1B2
:1009D00002780B78401C491C002A01D09A42EFD0C3
:1009E000D01A70BD01010101002203098B422CD3F2
:1009F000030A8B4211D300239C464EE003460B436F
:100A00003CD4002243088B4231D303098B421CD3D0
:100A1000030A8B4201D394463FE0C3098B4201D3C2
:100A2000CB01C01A524183098B4201D38B01C01AFA
:100A3000524143098B4201D34B01C01A5241030971
:100A40008B4201D30B01C01A5241C3088B4201D320
:100A5000CB00C01A524183088B4201D38B00C01ACD
:100A6000524143088B4201D34B00C01A5241411AF4
:100A700000D201465241104670475DE0CA0F00D0D7
:100A80004942031000D34042534000229C460309D0
:100A90008B422DD3030A8B4212D3FC22890112BA56
:100AA000030A8B420CD3890192118B4208D389012E
:100AB00092118B4204D389013AD0921100E0890946
:100AC000C3098B4201D3CB01C01A524183098B4227
:100AD00001D38B01C01A524143098B4201D34B0110
:100AE000C01A524103098B4201D30B01C01A524173
:100AF000C3088B4201D3CB00C01A524183088B42FA
:100B000001D38B00C01A5241D9D243088B4201D382
:100B10004B00C01A5241411A00D20146634652416D
:100B20005B10104601D34042002B00D5494270476C
:100B300063465B1000D3404201B50020C046C0466A
:100B400002BD704730B47446641E2578641CAB4205
:100B500004D3635D5B00E31830BC18471D46F8E71B
:100B6000800B000000FCFF1F780000000401000063
:100B7000F80B000078FCFF1F70030000200100004C
:100B800040F00F4000A004400004000008000000F6
:100B900040F00F4000A004400004000009000000E5
:100BA00040F00F4000A00440000400000A000000D4
:100BB0004C524F4E004C524F4646004C5244494D09
:100BC000004C52425249005A6C61206B6F6D656E49
:100BD0006461005A62797420646C75676920636986
:100BE000616700000000000000000000000000003D
:080BF00000000000000080027B
:04000005000000C136
:00000001FF
