:020000040000FA
:1000000078FFFF1FB1020000B9020000BB02000030
:1000100000000000000000000000000000000000E0
:10002000000000000000000000000000BD02000011
:100030000000000000000000BF020000C10200003C
:10004000C3020000C3020000C3020000C30200009C
:10005000C3020000C3020000C3020000C30200008C
:10006000C3020000C3020000C3020000C30200007C
:1000700065010000C3020000C3020000C3020000CB
:10008000C3020000C3020000C3020000C30200005C
:10009000C3020000C3020000C3020000C30200004C
:1000A000C3020000C3020000C3020000C30200003C
:1000B000C3020000C3020000C3020000C30200002C
:1000C00000F002F800F03EF80CA030C80838241800
:1000D0002D18A246671EAB4654465D46AC4201D180
:1000E00000F030F87E460F3E0FCCB6460126334274
:1000F00000D0FB1AA246AB463343184770020000FB
:1001000090020000103A02D378C878C1FAD852079A
:1001100001D330C830C101D504680C6070470000BD
:100120000023002400250026103A01D378C1FBD813
:10013000520700D330C100D50B6070471FB51FBDFB
:1001400010B510BD00F0D1F81146FFF7F7FF00F031
:100150002DF800F0E9F803B4FFF7F2FF03BC00F05C
:10016000EFF800001C4800792021084000280ED03C
:100170001948C0791949087019480078002806D133
:1001800008460078174908700120154908700C20AE
:10019000002809DB00BF00BFC206D20E012191403A
:1001A000114A116000BF00BF00BF704700F01EF889
:1001B00011E00B48007800280DD000BF06480079F8
:1001C000802108400028F9D0064800780249C8710B
:1001D000002003490870ECE700A0064011FCFF1F57
:1001E00012FCFF1F00FCFF1F00E100E02B48406BEA
:1001F000012189020843294948630846806B091593
:100200000843264988630846406801218906084357
:100210002249486048152249486088602148C078D2
:100220000C2188431F49C870002008705B2048706B
:100230000846807A4009400188720846807A0F217A
:100240000843184988720846C07A022108431549B4
:10025000C8720846C078202108431249C870084671
:10026000C0780C2108430F49C8700C20002809DB16
:1002700000BF00BFC206D20E012191400A4A1160A0
:1002800000BF00BF00BF0C20002805DBC206D20E55
:1002900001219140054A116000BF70470080044071
:1002A00000A0044000A0064000E100E080E200E081
:1002B0000748804707480047FEE7FEE7FEE7FEE7FE
:1002C000FEE7FEE704480549034A054B7047000076
:1002D00011040000C100000078FCFF1F78FFFF1F21
:1002E00078FCFF1F704770477047754600F024F890
:1002F000AE46050069465346C008C000854618B0A2
:1003000020B5FFF7DFFF60BC00274908B64600268E
:10031000C0C5C0C5C0C5C0C5C0C5C0C5C0C5C0C5B5
:10032000403D49008D46704710B50446C046C04662
:100330002046FFF710FF10BD0048704718FCFF1F54
:1003400001491820ABBEFEE726000200704730B41A
:100350007446641E2578641CAB4204D3635D5B0065
:10036000E31830BC18471D46F8E70000D806000027
:1003700000FCFF1F1800000004010000F006000050
:1003800018FCFF1F600300002001000000000000B7
:10039000000000000000000000000000000000005D
:1003A000000000000000000000000000000000004D
:1003B000000000000000000000000000000000003D
:1003C000000000000000000000000000000000002D
:1003D000000000000000000000000000000000001D
:1003E000000000000000000000000000000000000D
:1003F00000000000000000000000000000000000FD
:10040000FFFFFFFFFFFFFFFFFFFFFFFFFEFFFFFFFD
:10041000002053490860012000045149C039486058
:10042000062050490870002048700846C0788006B1
:10043000800E202108434B49C87080204A4908702B
:1004400000BF48488079102108400028F9D000BF3B
:10045000444880790C2108400028F9D1704770B5D4
:1004600040480078C0210840002847D13D48007826
:100470000421084000280ED14C033A480078382166
:100480000840C10801208840C5B22946204600F036
:1004900075F8044601E00124E4033248C078E02105
:1004A0000840C106C90E002926D140110300FFF7FC
:1004B0004EFF0805090D1115191D20230520C00147
:1004C00044431AE005200002444316E00F20C00117
:1004D000444312E00520400244430EE0B720800070
:1004E00044430AE0B720C000444306E01F484443A9
:1004F00003E01F48444300E000BF24E019480078AF
:10050000C0210840402815D116484078C007C00FC8
:10051000002802D10124E40315E01248007A0E22DB
:1005200010404208012090400146124800F026F891
:10053000044608E00B480078C0210840802801D11B
:10054000040200E070BD0648C0384068000F411C3E
:10055000204600F013F80849086000BFF2E70000E9
:10056000008104400040064000500640950800000D
:10057000710B000000093D0014FCFF1F002203095D
:100580008B422CD3030A8B4211D300239C464EE0AE
:1005900003460B433CD4002243088B4231D303096A
:1005A0008B421CD3030A8B4201D394463FE0C3091C
:1005B0008B4201D3CB01C01A524183098B4201D334
:1005C0008B01C01A524143098B4201D34B01C01A1F
:1005D000524103098B4201D30B01C01A5241C30897
:1005E0008B4201D3CB00C01A524183088B4201D306
:1005F0008B00C01A524143088B4201D34B00C01AF2
:100600005241411A00D201465241104670475DE006
:10061000CA0F00D04942031000D340425340002289
:100620009C4603098B422DD3030A8B4212D3FC2232
:10063000890112BA030A8B420CD3890192118B42B1
:1006400008D3890192118B4204D389013AD09211C7
:1006500000E08909C3098B4201D3CB01C01A524182
:1006600083098B4201D38B01C01A524143098B424B
:1006700001D34B01C01A524103098B4201D30B0134
:10068000C01A5241C3088B4201D3CB00C01A524159
:1006900083088B4201D38B00C01A5241D9D2430840
:1006A0008B4201D34B00C01A5241411A00D201467D
:1006B000634652415B10104601D34042002B00D5E7
:1006C0004942704763465B1000D3404201B50020A9
:1006D000C046C04602BD000020202020202020204F
:1006E0002020202020202020200000000000800268
:04000005000000C136
:00000001FF
