:020000040000FA
:1000000090FFFF1F3903000041030000430300007D
:1000100000000000000000000000000000000000E0
:100020000000000000000000000000004503000088
:10003000000000000000000047030000490300002A
:100040004B0300004B0300004B0300004B03000078
:100050004B0300004B0300004B0300004B03000068
:100060004B0300004B0300004B0300004B03000058
:100070004B0300004B0300004B030000BD060000D3
:100080004B0300004B0300004B0300004B03000038
:100090004B0300004B0300004B0300004B03000028
:1000A0004B0300004B0300006F0A00004B030000ED
:1000B0004B0300004B0300004B0300004B03000008
:1000C00000F002F800F053F80CA030C808382418EB
:1000D0002D18A246671EAB4654465D46AC4201D180
:1000E00000F045F87E460F3E0FCCB646012633425F
:1000F00000D0FB1AA246AB4633431847781D0000D8
:10010000981D0000103A02D378C878C1FAD8520777
:1001100001D330C830C101D504680C6070470000BD
:100120000023002400250026103A01D378C1FBD813
:10013000520700D330C100D50B60704710B5662957
:1001400002D101F03BFE10BD642902D100F06EFD2A
:1001500010BD002010BD1FB500F04CF904000020B8
:10016000002101F0BDFDE0601FBD10B510BD01F024
:1001700003FD1146FFF7EFFF00F0B3FA01F01BFD9E
:1001800003B4FFF7F2FF03BC01F060FD70B5054654
:100190000C46164602E00FCC0FC5103E102EFAD2C8
:1001A000082E02D303CC03C5083E042E07D301CC8E
:1001B00001C5361F03E021782970641C6D1C761E72
:1001C000F9D270BD4048C06B0122D20610433E4AAE
:1001D000D0631046806B121510433B4A90633B4836
:1001E000806804229043394A90605120384A9060D8
:1001F0000420D060072050621046406A80221043DD
:10020000334A506200BF3248406A802210400028C2
:10021000F9D12F48406A40221040002806D02C48CF
:10022000406A10432A4A5062012070470021284842
:100230004030C068401881B225484030806840187E
:1002400081B2234840304068401881B22048403095
:100250000068401881B21E48C06B401881B21C482B
:10026000806B401881B21A48406B401881B2084632
:10027000CA0F121851100120C00301431448C16273
:100280001F20134A10601046C06804221043104A11
:10029000D060152090600020506207205062104608
:1002A000406A082210430A4A50620F20012282400D
:1002B000084B1A6000BF00BF01228240064B1A6043
:1002C00000BF0020B1E700000080044000A004400F
:1002D00000B0034080E200E000E100E01348C06BA2
:1002E0000121C90708431149C8630846806B0915F5
:1002F00008430E4988630E484078A02108430C4902
:100300004870704701460B48814201DD012070476B
:10031000CAB20748203802700A1242700448407876
:1003200010231843024B58700020F0E7008004406F
:1003300020F00340FF0F00000748804707480047B0
:10034000FEE7FEE7FEE7FEE7FEE7FEE704480549B5
:10035000034A054B70470000C10A0000C1000000BD
:1003600090FCFF1F90FFFF1F90FCFF1F0FB41CB5F8
:10037000074B06AA7B4469460090059801F097F860
:100380000020694600F030F81CBC08BC04B01847D7
:100390007100000070B5044685690068C10601D58A
:1003A000302600E02026C00707D070BD62683046C6
:1003B000A1689047206A401C20626D1EF6D570BD72
:1003C00070B5044685690078C00707D170BD6268C2
:1003D000A16820209047206A401C20626D1EF6D53F
:1003E00070BD7047704770470A681070521C0A60F1
:1003F000704700000048704750FCFF1F7047000026
:10040000FFFFFFFFFFFFFFFFFFFFFFFFFEFFFFFFFD
:100410005748406B40210843554948630846806B64
:1004200009150843524988635248C0684915084372
:100430005049C86008460069491508434D4908619C
:100440004D488078802188434B4988700846407821
:10045000402108434849487008464078192108431C
:1004600045494870084680782021084342498870F1
:1004700008468078102108433F49887008468078F4
:10048000082108433C49887070473B4880788021A8
:1004900088433949887070473748807820218843DD
:1004A00035498870704700203449088004E033489B
:1004B0000088401C314908802F48C078022108403C
:1004C000002804D12D4800882D498842EFDB2B48B5
:1004D00000882B49884205DB2A480078012108431F
:1004E000284908702448C078022108432249C8706E
:1004F0002448007870472049087170471E4880786A
:10050000202108431C49887070471B4880781021BF
:10051000084319498870704717488078802108433C
:1005200015498870704700B502460B4600201549F2
:100530000870FFF7F1FFFFF7E8FFFFF7DFFF510655
:10054000080EFFF7D8FFFFF7AEFF1846FFF7D3FFFF
:10055000FFF7A9FFFFF7A0FFFFF797FF0948007813
:1005600000BD05488078042108430349887070471E
:100570000080044000A004400060064002FCFF1F11
:100580001027000000FCFF1F10B504464848007803
:10059000002801D0082000E00020014621433F2030
:1005A000FFF7C1FF10BD70B504460D462101F022D2
:1005B0001140002D01D0012200E00022114304224D
:1005C00008461043FFF7E0FF2101F0221140002D03
:1005D00001D0012200E0002208461043FFF7D4FFBB
:1005E000002001E000BF401C32498842FAD370BDB0
:1005F00070B504460D462106080F2946FFF7D3FFC4
:100600002007000F2946FFF7CEFF70BD10B5FFF79A
:10061000FFFE0020FFF7B8FF002001E000BF401CF4
:1006200025498842FAD300213320FFF7E1FF00215A
:100630003220FFF7DDFF00212C20FFF7D9FF00213A
:100640000820FFF7D5FF00210120FFF7D1FF00218F
:100650000C20FFF7CDFF10BD70B505460C46012CF0
:1006600000DD012429468031A2018918C8B2002189
:10067000FFF7BEFF70BD10B500210120FFF7B8FFE6
:1006800010BD70B50446002505E0605D0121FFF74F
:10069000AFFF681CC5B2605D0028F6D170BD10B513
:1006A0000446034804700020FFF76EFF10BD0000F1
:1006B00004FCFF1F204E0000A068060010B54A4849
:1006C00000694A4908804A480078002808D108464D
:1006D000008800F081FC4749086001204449087007
:1006E00010BD86B0322044490880142243A101A8DD
:1006F000FFF74CFD00F01AF9FFF788FF0120FFF724
:10070000CEFF3D48028842A101A8FFF72FFE00213D
:100710000846FFF7A1FF01A8FFF7B3FF0121002062
:10072000FFF79AFF3DA0FFF7ACFFFFF74BFD064632
:10073000002E01D000BFFEE7FFF7D0FD2E48008855
:100740002B2148433649088008460088FFF7DAFD28
:1007500044202549086046E025480078002842D01A
:1007600000F00CF9244908800846008800281DD0B4
:10077000084602882BA101A8FFF7F8FD00210720F9
:10078000FFF76AFF01A8FFF77CFF1B480088801E67
:1007900019490880084600882B2148432349081A34
:1007A0001F49088008460088FFF7ACFD2048016813
:1007B0001048006801F0AAFA0E490860084600686F
:1007C00000F0B4FB044622460B461AA101A8FFF72D
:1007D000CDFD01210320FFF73FFF01A8FFF751FFE7
:1007E000002003490870B7E700B003400EFCFF1F6C
:1007F0000CFCFF1F14FCFF1F10FCFF1F20202020FB
:100800002020202020202020202020202000000048
:10081000536C696465723D2530326400556B3D0050
:1008200012FCFF1F2530326400000000F50F0000AD
:1008300008FCFF1F252E33665600000010B5924AB3
:10084000126804231A43904B1A601A4612688023D8
:100850009A438D4B1A601A46126810231A40002AD8
:1008600001D0012100E00021874A126810239A4339
:10087000854B1A601A46126840239A43824B1A60CD
:100880001A46126880231A437F4B1A6000201EE02C
:100890007E4A125C12077C4B5A601A46526801234A
:1008A0009B051A43784B5A6000BF774A12680423AD
:1008B0001A40002AF9D0744A12681A43724B1A601F
:1008C0001A4652684300724CE252421CD0B20228CF
:1008D000DEDB6D4A126880239A436B4B1A601A461E
:1008E000126840231A43684B1A60002906D01A4642
:1008F000126810231A43644B1A6005E0624A1268BA
:1009000010239A43604B1A605F4A126880231A438F
:100910005D4B1A605D4A127812075A601A46526897
:1009200001239B051A43584B5A6010BD00B5594826
:10093000806B20210843574988630846806B032158
:100940004902084353498863002053494863534987
:1009500008634D480068524908434B4908601A2013
:10096000012181404F4A116000BF00BF0121814039
:100970004D4A116000BFFFF761FF00BD70B5002553
:1009800000244A480078002832D0002047490870E7
:100990004748008847490988884205DC4448408820
:1009A00044494988884221DD414A1288404B5B888E
:1009B000D1183F4A128864235A43104600F012FAB5
:1009C00005463B4A12883A4B5B88D118384A528810
:1009D00064235A43104600F005FA04466420401B85
:1009E0000119C80F4018C005000E70BD0020FCE7BB
:1009F0000020FAE7244949682F4A127852002F4B09
:100A000099522D49097849001A46515A2A4A1278B2
:100A100052001F4B9A5A891A08B2002806DA0021A0
:100A2000254A12785200224B995204E0224A127849
:100A300052001F4B985220490978012905DA1E49B6
:100A40000978491C1C4A117002E000211A4A1170F1
:100A50000E49194A1278895C09070B4A5160114600
:100A60004968012292051143074A5160704700B559
:100A700001200E4908700448006804210843024917
:100A80000860FFF7B7FF00BD0050044018FCFF1FCF
:100A90001EFCFF1F008004400090044000A00440A2
:100AA000E08B871080E200E000E100E02BFCFF1FFC
:100AB00026FCFF1F22FCFF1F2AFCFF1F1AFCFF1F42
:100AC000002053490860012000045149C0394860A2
:100AD000062050490870002048700846C0788006FB
:100AE000800E202108434B49C87080204A49087075
:100AF00000BF48488079102108400028F9D000BF85
:100B0000444880790C2108400028F9D1704770B51D
:100B100040480078C0210840002847D13D4800786F
:100B20000421084000280ED14C033A4800783821AF
:100B30000840C10801208840C5B22946204600F07F
:100B400047F9044601E00124E4033248C078E0217B
:100B50000840C106C90E002926D14011030001F04A
:100B600093F80805090D1115191D20230520C00152
:100B700044431AE005200002444316E00F20C00160
:100B8000444312E00520400244430EE0B7208000B9
:100B900044430AE0B720C000444306E01F484443F2
:100BA00003E01F48444300E000BF24E019480078F8
:100BB000C0210840402815D116484078C007C00F12
:100BC000002802D10124E40315E01248007A0E2225
:100BD00010404208012090400146124800F0F8F809
:100BE000044608E00B480078C0210840802801D165
:100BF000040200E070BD0648C0384068000F411C88
:100C0000204600F0E5F80849086000BFF2E7000060
:100C10000081044000400640005006409508000056
:100C2000710B000000093D002CFCFF1FF7B50025EB
:100C300075291068009914A611D0C046C046002836
:100C400002DA404211A608E0009909688A0701D536
:100C50000FA602E0490704D50EA6012501E0C04613
:100C6000C046009F0024243704E000F033FC3031FC
:100C70003955641C0028F8D12B463246214600988D
:100C800000F0ADF9FEBD0000000000002D000000E6
:100C90002B00000020000000F3B50446002081B0C6
:100CA00020622046E168884700287DD0252802D0B0
:100CB0006268A16883E0454F00257F442046E168D3
:100CC00088472028064608DB312E06D2B81920387E
:100CD0000078002801D00543F0E7A80701D50420DB
:100CE00085430020E0610746A0612A2E0AD03046E5
:100CF00000F0EEFF002827D0B8000019303E009029
:100D0000866119E00298BA00121902C89161029036
:100D10002046E1688847012F064617D1E069002880
:100D20001FDA202085431CE000980A21806948438F
:100D300000998019303888612046E1688847064666
:100D400000F0C6FF0028EFD1012F0AD02E2E08D1C7
:100D50002046E16888470646202005437F1C022F75
:100D6000C3DBA069002803DA4042A06101200543EB
:100D7000E80701D010208543002E24D030464138AA
:100D8000192803D80120C0020543203620462560DB
:100D90003146029A1546FFF7D1F900280CD00128F8
:100DA00007D0ED1DE80800E00DE0C000083002901B
:100DB00077E72D1D029574E762683046A168904779
:100DC000206A401C6CE7206AFEBD00000E11000086
:100DD000002203098B422CD3030A8B4211D3002338
:100DE0009C464EE003460B433CD4002243088B4212
:100DF00031D303098B421CD3030A8B4201D394469F
:100E00003FE0C3098B4201D3CB01C01A5241830991
:100E10008B4201D38B01C01A524143098B4201D34B
:100E20004B01C01A524103098B4201D30B01C01A76
:100E30005241C3088B4201D3CB00C01A52418308F0
:100E40008B4201D38B00C01A524143088B4201D31D
:100E50004B00C01A5241411A00D20146524110467D
:100E600070475DE0CA0F00D04942031000D34042F2
:100E7000534000229C4603098B422DD3030A8B4228
:100E800012D3FC22890112BA030A8B420CD38901C6
:100E900092118B4208D3890192118B4204D38901AC
:100EA0003AD0921100E08909C3098B4201D3CB01EA
:100EB000C01A524183098B4201D38B01C01A52419F
:100EC00043098B4201D34B01C01A524103098B42A3
:100ED00001D30B01C01A5241C3088B4201D3CB008E
:100EE000C01A524183088B4201D38B00C01A524171
:100EF000D9D243088B4201D34B00C01A5241411A48
:100F000000D20146634652415B10104601D3404275
:100F1000002B00D54942704763465B1000D3404226
:100F200001B50020C046C04602BD00000121C90530
:100F30000123411842001B06D3185B0E0AD0C110D2
:100F40000722D206891840075242D14201D55200E9
:100F500089187047090208D50146002A03D0C10F3D
:100F6000C9070020704710467047420202D0002097
:100F700002497047072109050143F4E70000F87FA3
:100F80001F22030C02D10F2200041CD0030E01D13A
:100F90000002083A030F01D10001121F830F01D193
:100FA0008000921E002801DB4000521ED20551181D
:100FB000021251181922904004D3491C002801D173
:100FC0004908490008467047C10FC90700D0404290
:100FD000012292071143D3E701218907D0E7FFB52A
:100FE00004460D4681B0243000902168880604D55F
:100FF0001022E0699143216000E00120A84201DD58
:10100000471B00E000270498A1697A191018081AF4
:10101000A0612078C00602D42046FFF7BBF9002665
:1010200008E003986268A168805D9047206A401CD0
:10103000761C206204988642F3DB2078C0060AD52D
:101040002046FFF7A7F906E06268A16830209047C4
:10105000206A401C206238467F1E0028F4DC07E02E
:1010600000986268A168405D9047206A401C206239
:1010700028466D1E0028F3DC2046FFF7A1F92078F2
:10108000000602D5022005B0F0BD0120FBE70000FC
:101090007047FFB50C461E468FB003CA08900991F1
:1010A0004F007D0D00D16D1E002108460020C04676
:1010B0000321099A89050840002A03DA8200801872
:1010C00040080840800D01280A9002DD0020C0433E
:1010D0000A90089807430DD0EF48F0492818484374
:1010E0000714189800281DD07542291E1DDD0A9886
:1010F00042421BE01898012802D00020302104E071
:101100000020F24305E02154401CB042FBDB304696
:101110000022189B002121540F998B600A604860BF
:1011200013B0F0BDBD1B6D1CDFE70A9A002900DA81
:1011300069420BA800F064FA0BAB07CB03AB07C303
:101140000899099800F0C0FA6B4607C30146D448D5
:101150000918002D00910ADDD14903980A9A4942E5
:10116000401803A90390684600F0D3FC07E00399F8
:101170000A9A081803A90390684600F0A0FC6B4681
:1011800007C30004000C03D00020C043410800E066
:101190001046189A002A03D00022009215461EE03D
:1011A000751E05D400F0AAF9303262556D1EF9D5CE
:1011B00001220843079602D000227F1C04E0207819
:1011C000302801D100227F1E002A069789D01EE018
:1011D000112D07DA00F092F9303262556D1C02468B
:1011E0000A43F5D1084303D00098002819D00EE037
:1011F0000021681E05E0235C625C63542254401E9B
:10120000491C8142F7DBA81B401E07950690079AF0
:1012100018990020A0540F98079B069A81600CC073
:101220007EE71126002018905BE7D21DF0B50D4631
:101230000446D10893B0C90003C90C900D9100F089
:1012400031FD02460D98C00F01D02D2007E0206827
:10125000810701D52B2002E04007C00F4001032A7F
:101260000F9001D0072A05DB03462946204600F0EF
:1012700083F90EE12078800601D5E76900E00627B2
:101280002846652D04D0662814D0672D69D12DE03D
:101290000020112F009001DB112300E07B1C0CAA21
:1012A00003A910A8FFF7F5FE1199002610987D1CE0
:1012B0000E9142E001203B460CAAC0070B90012092
:1012C000009003A910A8FFF7E4FE119D1298109951
:1012D000002600280E9501D1781C0D18781B02D429
:1012E00046427D1C761EE81B00903AE0012F00DA92
:1012F00001270020112F009001DD112300E03B4663
:101300000CAA03A910A8FFF7C4FE11993D46109836
:1013100000260E91217809070BD40E99A94200DA14
:101320000D4603A9012D04DD4A19203AD27F302A47
:1013300006D0B84201DA011D04DA012100910FE064
:101340006D1EEFE7002802DC86192D1A03E0411C10
:10135000A94200DD0D46801B401C00900120C00703
:101360000B902078000705D40098A84202DB0020EB
:10137000C043009069460020C8720B98012102AF5B
:101380000337C907884225D0022010902B201190E6
:101390000B9800280BDA40420B902D20119006E0AC
:1013A0000B9800F097F830317F1E0B903970109930
:1013B000481E00291090F3DC0B980028F0D11198FA
:1013C0007F1E38702088000501D5452000E065208B
:1013D0007F1E387001A8C01BC01D0B900F980028FD
:1013E00000D0012041190098C01709180B9808185F
:1013F000A169081A401EA0612078C00602D42046C8
:10140000FEF7C8FF0F98002805D06268A1689047D2
:10141000206A401C20622078C00625D52046FEF7B1
:10142000B9FF21E0002E07DB0E98B04204DD03A8CF
:101430006268805DA16802E06268A1683020904720
:10144000206A761C401C20620098401E00280090F4
:101450000AD1FEF7CFFFC06862680168405CA168EE
:101460009047206A401C206228466D1E0028D9DC67
:1014700007E062683878A1687F1C9047206A401CAA
:1014800020620B99481E00290B90F2DC2046FEF7E3
:1014900097FF032044E6000001FCFFFF104D000011
:1014A000E1DFFFFF01694A1C02610878704700B55F
:1014B0008FB0029100210591054901937944039170
:1014C000114604906846FFF7E7FB0FB000BD00002F
:1014D000E5FFFFFF01468008081A02091018020AFA
:1014E0001018020C1018C008820012185200891A35
:1014F00001E0401C0A390A29FBD270470B4670B53F
:10150000024689078008084319469D08141AA94114
:1015100025090807054308092C194841250A010631
:101520000D43010A2C194141200C0D0428430D0CD8
:1015300000194D41002140194D41C0086907084379
:10154000E908840F8D002543840024184D41241997
:101550006D41121BAB4107E00925ED432C115219D7
:1015600063410024401C61411C460A250026551B8E
:10157000B441F1D270BD0000F8B51F460446012306
:101580000068DB02032601461840072A05DB002815
:1015900001D017A506E017A504E0002801D016A584
:1015A00000E016A5102081432160A069C01E002F15
:1015B000A06101D0401EA0612046FEF7EBFE002F87
:1015C00009D038466268A1689047206A401C2062B2
:1015D000C01C206206E0206AFAE762682878A168E9
:1015E0006D1C9047761EF8D22046FEF7E9FEF8BD46
:1015F0004E414E006E616E00494E4600696E6600B7
:10160000F7B516468AB02F4878446C4603467C33BB
:10161000C06F5A689B680DC42A487844763003AC82
:101620000DC80DC43720C001081837211B30FFF743
:10163000D9FB05460C46803D1B3C02D56442012087
:1016400000E00020002709900FE0E0070BD00C20FD
:101650001C497843794432464C394118684600F0B9
:101660002EFA6B4607C364107F1C002CEDD1154F7A
:101670007F442C3F15E0E80711D02001C0190EC8A7
:101680000691089307920068F04201D198190890DA
:10169000324606A903A800F012FA03AB07C36D1087
:1016A000641C002DE7D1324669460998002803A83A
:1016B00002D000F02EFA01E000F001FA0A9B07C305
:1016C0000DB0F0BDD4070000034640000A4610B537
:1016D000400D0BD00121C9070F24A40200191C03DF
:1016E00064082143540D2143D20207E00021012068
:1016F000F2E7D40F490021435200401E0029F8DAD6
:10170000DB0FDB07184310BDFFB50D46144685B04F
:101710004868516800F0A0FA00910190A868A1689B
:1017200000F09AFA02910390A868616800F094FAB8
:10173000029A12188242029201D2012000E0002097
:10174000019A0B18D2180028019202D08A4202D9BD
:1017500003E08A4201D2012000E00020009908182D
:1017600000906868A16800F077FA029A1218824225
:10177000029201D2012000E00020019A0B18D21839
:101780000028019202D08A4202D903E08A4201D2A3
:10179000012000E0002000990818009028682168C6
:1017A00040004900400849084018EE49471814E035
:1017B00001994000C90F0843009001980299400028
:1017C000C90F08430190029803994000C90F0843CC
:1017D0000290039840007F1E039000980028E7DAEB
:1017E0000898002801D0E04E00E00026B74228DA31
:1017F000F71BF806C00E15D0029B2021091A039A88
:101800008B401A430392029A019BC2408B401A43B9
:101810000292019A009BC2408B4000991A430192A8
:10182000C14000917A110BD06B460320811A01D57B
:10183000002101E0890059588700401ED951F5D593
:10184000374603980299002800D0012001430898E8
:101850000291002808460CD0002800D001200199F0
:10186000019A490508430121D20AC902D202019214
:1018700000E001210E9B0122D207012B02D0002B98
:1018800003D013E0002807D116E0904204D890421C
:101890000CD1019B0B4209D0019B5918019105D134
:1018A0000099491C009101D17F1C0092002803D0AF
:1018B000102108460020C04628682168019B009A34
:1018C0004840C10F0598C90739430EC009B0F0BDA3
:1018D000FFB587B0099A08980899536892684068DC
:1018E000896896460022039317469446089A126820
:1018F0005300099A5B081268520052089A1A9B4BCF
:10190000D4180A9A002A01D0352200E0402206921B
:101910000022012315460492DB07059324E0002DE5
:1019200005D175460346039E4D1BB34109D3754649
:101930006646039B491B049D9841059B7519AC465F
:101940005F4163463B4308D0059B049EDD07760854
:101950002E435B080496059301E0521E641EC50FDA
:10196000ED0749184041521C069B9A42D7DB002DD7
:1019700004D17546039A6B1A824101D203200CE010
:10198000039A0B466B404240134303D0014303D0FC
:10199000012002E0022000E00020614601910021C8
:1019A000009702910A99002905D06146400201433F
:1019B0006D4B019102E08007002302909C423ADACD
:1019C0001A1BD006C00E15D0029D2021019C091AB9
:1019D000C5408C402543029C8C4000D00124254307
:1019E000019C02953D46C4408D4039462C43C14080
:1019F0000194009154111DD06D460221002202294C
:101A00000CD10320001B07E0002804DB8600AE5940
:101A1000002E00D00122401C0328F5DB081B02D554
:101A200088002A5004E08000285810438A00A850FB
:101A3000491EE3D51C460A98002802980CD00028BD
:101A400000D001200199019A490508430121D20AD9
:101A5000C902D202019200E00121109B0122D207AB
:101A6000012B02D0002B03D013E0002807D116E091
:101A7000904204D890420CD1019B0B4209D0019BAB
:101A80005918019105D10099491C009101D1641C9C
:101A90000092002803D0102108460020C046089874
:101AA0000999019A0068096848400099C30F07988E
:101AB000DB0723430360826041600BB0F0BD1FB5BC
:101AC000002300920A46014601A8FFF71DFE01AB64
:101AD00007CB04B010BD1FB5012300920A46014692
:101AE00001A8FFF711FE01AB0F2407CBA402C30F1F
:101AF0004000DB074008001B002900DB00204900F4
:101B000000054908CC0A204349051843D20A11436D
:101B1000DFE71FB5002300920A46014601A8FFF740
:101B2000D7FE01AB07CBD4E71FB5012300920A46CD
:101B3000014601A8FFF7CCFE01AB0F2407CBA4029E
:101B4000C30F4000DB074008001B002900DB00201A
:101B5000490000054908CC0A204349051843D20A28
:101B60001143B6E702C0FFFF013C0000FF3F000049
:101B70000048704730FCFF1F7546FFF7F9FFAE467F
:101B8000050069465346C008C000854618B020B518
:101B9000FEF7DCFB60BC00274908B6460026C0C53E
:101BA000C0C5C0C5C0C5C0C5C0C5C0C5C0C5403D15
:101BB00049008D4670470446C046C0462046FEF7A1
:101BC000DFFA0000024670B50A4392072AD11E4D83
:101BD000EE0104C808C9541B9443344017D0D0B256
:101BE000D9B2401A2106014310D190B299B2401ADD
:101BF000210401430AD110021902000A090A401AFD
:101C00002102014302D1100E190E401A70BD9A42F2
:101C1000DFD010BA19BA884201D9012070BD002066
:101C2000C04370BD02780B78401C491C002A09D0C3
:101C30009A4207D102780B78401C491C002A01D037
:101C40009A42EFD0D01A70BD01010101014918205C
:101C5000ABBEFEE726000200F8B5040C8BB22646A8
:101C600082B25E43104658430D0C370C36040021F7
:101C70008019164679416E43370C36048019264682
:101C800079416E438919F8BD30B47446641E2578D5
:101C9000641CAB4204D3635D5B00E31830BC18479F
:101CA0001D46F8E74900CA020243100000D0042094
:101CB0004A0D01D001221043044A490D914201D13D
:101CC00002210843012800D105207047FF070000CA
:101CD00030380A2801D201207047002070470000E8
:101CE00010B500290AD00878002807D005487844A4
:101CF000FFF768FF002801D0002010BD024878449B
:101D000010BD0000A60100009E01000070B5420059
:101D100064414B005C41120E39D01B0E38D0FF2AB3
:101D20003CD0FF2B3AD040024902400A490A060043
:101D300045184E43000A090AD2184843ED017F3A7C
:101D40000104731A4019190C4318990F04D001218A
:101D50005B0849075B1A521CD80904D3401CF503E1
:101D600001D19D0607D0FF2A08D2D50506D0E40789
:101D70002043401970BD0125A843F4E7002A01DC87
:101D8000E00770BD2402FF202043C00570BD1B0E7C
:101D9000FF2A03D0FF2B01D0E00770BDFF264500CE
:101DA0003606B54206D84D00B54203D8D218FF2AF0
:101DB00000D0E7E7004870BD0000C07F03B40248D0
:101DC0007844844603BC604767F4FFFF04000008C2
:101DD00000000000000000020001000010000000F0
:101DE00002400000000000A00000000005400000CC
:101DF000000000C8000000000C4000000000409CF3
:101E000000000000194000000020BCBE00000000DF
:101E100034400000BFC91B8E00000004B540000024
:101E2000504BCFD06607E2CF010000006C410000AC
:101E30003E8251AADFEEA73401000000D942000023
:101E4000DCB5A0E23A301F97FFFFFFFFB44500006A
:101E5000FD25A0C8E9A3C14FFFFFFFFFFF3F000022
:101E60000000008000000000FF3F00000000008034
:101E700000000000B01E000000FCFF1F300000004A
:101E800004010000E01E000030FCFF1F60030000A2
:101E9000200100001C00000043000000F8FFFFFFCD
:101EA0000C0000000E0000000F0000002E000000DB
:101EB000000000000100000016493A3A000000004E
:101EC0000000000000000000090800000000000001
:101ED00000006400640000000000000100008002B7
:04000005000000C136
:00000001FF
