:020000040000FA
:1000000088FFFF1FBD060000C5060000C7060000F0
:1000100000000000000000000000000000000000E0
:10002000000000000000000000000000C906000001
:100030000000000000000000CB060000CD0600001C
:10004000CF060000CF060000CF060000CF0600005C
:10005000CF060000CF060000CF060000CF0600004C
:10006000CF060000CF060000CF060000CF0600003C
:10007000CF060000CF060000CF060000D10200002E
:10008000CF060000CF060000CF060000CF0600001C
:10009000CF060000CF060000CF060000CF0600000C
:1000A000CF060000CF060000CF060000CF060000FC
:1000B000CF060000CF060000CF060000CF060000EC
:1000C00000F002F800F04EF80CA030C808382418F0
:1000D0002D18A246671EAB4654465D46AC4201D180
:1000E00000F040F87E460F3E0FCCB6460126334264
:1000F00000D0FB1AA246AB4633431847C821000084
:10010000E8210000103A02D378C878C1FAD8520723
:1001100001D330C830C101D504680C6070470000BD
:100120000023002400250026103A01D378C1FBD813
:10013000520700D330C100D50B60704710B5662957
:1001400002D102F02DF810BD002010BD1FB501F046
:1001500005FC04000020002102F00CF8E0601FBD47
:1001600010B510BD01F050FF1146FFF7EFFF00F092
:10017000C2F801F068FF03B4FFF7F2FF03BC01F01F
:10018000ADFF000070B505460C46164602E00FCCE8
:100190000FC5103E102EFAD2082E02D303CC03C591
:1001A000083E042E07D301CC01C5361F03E0217899
:1001B0002970641C6D1C761EF9D270BD3F48C06B5F
:1001C0000122D20610433D4AD0631046806B1215BF
:1001D00010433A4A90633A48806804229043384A70
:1001E00090605120374A90600420D0600720506210
:1001F0001046406A80221043324A506200BF3148A4
:10020000406A802210400028F9D12E48406A4022DE
:100210001040002806D02B48406A1043294A5062FB
:1002200001207047002127484030C068401881B243
:10023000244840308068401881B2224840304068ED
:10024000401881B21F4840300068401881B21D48F4
:10025000C06B401881B21B48806B401881B21948AE
:10026000406B401881B20846CA0F12185110012085
:10027000C00301431348C1620120124A90621F204B
:1002800010601046C068042210430E4AD06015204A
:1002900090601046406A082210430A4A50620F20BC
:1002A00001228240084B1A6000BF00BF0122824039
:1002B000064B1A6000BF0020B3E700000080044036
:1002C00000A0044000B0034080E200E000E100E054
:1002D00010B52F4800692F4908802F480078002862
:1002E00008D10846008800F0EAFF2C4A03C201202A
:1002F0002949087010BD86B0142229A16846FFF76D
:1003000041FF00F083F9012000F0C9F929A000F0B5
:10031000B8F9FFF753FF05900598002801D000BFFA
:10032000FEE75A201A49086030E01B480078002890
:100330002CD0214819490CC803C900F0C3FF174A43
:1003400003C200221D4B154903C900F048FD0446B5
:100350001B4A1C4B00F066FD064600221A4B00F0BB
:1003600049FD0E4A03C20D4818A10CC8684600F0AA
:1003700033F8DF20694688710021084600F06CF9E7
:10038000684600F07EF9002003490870CDE70000C0
:1003900000B0034012FCFF1F10FCFF1F18FCFF1FE2
:1003A000202020202020202020202020202020204D
:1003B000200000002D2D2D0008FCFF1F006086404E
:1003C000EC51B81E85EBF93F00003940543D252E15
:1003D00031662043000000000FB41CB5074B06AA8D
:1003E0007B4469460090059801F09FFA0020694619
:1003F00001F0AEFA1CBC08BC04B018476D15000033
:10040000FFFFFFFFFFFFFFFFFFFFFFFFFEFFFFFFFD
:100410005748406B40210843554948630846806B64
:1004200009150843524988635248C0684915084372
:100430005049C86008460069491508434D4908619C
:100440004D488078802188434B4988700846407821
:10045000402108434849487008464078192108431C
:1004600045494870084680782021084342498870F1
:1004700008468078102108433F49887008468078F4
:10048000082108433C49887070473B4880788021A8
:1004900088433949887070473748807820218843DD
:1004A00035498870704700203449088004E033489B
:1004B0000088401C314908802F48C078022108403C
:1004C000002804D12D4800882D498842EFDB2B48B5
:1004D00000882B49884205DB2A480078012108431F
:1004E000284908702448C078022108432249C8706E
:1004F0002448007870472049087170471E4880786A
:10050000202108431C49887070471B4880781021BF
:10051000084319498870704717488078802108433C
:1005200015498870704700B502460B4600201549F2
:100530000870FFF7F1FFFFF7E8FFFFF7DFFF510655
:10054000080EFFF7D8FFFFF7AEFF1846FFF7D3FFFF
:10055000FFF7A9FFFFF7A0FFFFF797FF0948007813
:1005600000BD05488078042108430349887070471E
:100570000080044000A004400060064002FCFF1F11
:100580001027000000FCFF1F10B504464848007803
:10059000002801D0082000E00020014621433F2030
:1005A000FFF7C1FF10BD70B504460D462101F022D2
:1005B0001140002D01D0012200E00022114304224D
:1005C00008461043FFF7E0FF2101F0221140002D03
:1005D00001D0012200E0002208461043FFF7D4FFBB
:1005E000002001E000BF401C32498842FAD370BDB0
:1005F00070B504460D462106080F2946FFF7D3FFC4
:100600002007000F2946FFF7CEFF70BD10B5FFF79A
:10061000FFFE0020FFF7B8FF002001E000BF401CF4
:1006200025498842FAD300213320FFF7E1FF00215A
:100630003220FFF7DDFF00212C20FFF7D9FF00213A
:100640000820FFF7D5FF00210120FFF7D1FF00218F
:100650000C20FFF7CDFF10BD70B505460C46012CF0
:1006600000DD012429468031A2018918C8B2002189
:10067000FFF7BEFF70BD10B500210120FFF7B8FFE6
:1006800010BD70B50446002505E0605D0121FFF74F
:10069000AFFF681CC5B2605D0028F6D170BD10B513
:1006A0000446034804700020FFF76EFF10BD0000F1
:1006B00004FCFF1F204E0000A0680600074880478A
:1006C00007480047FEE7FEE7FEE7FEE7FEE7FEE736
:1006D00004480549034A054B70470000F106000035
:1006E000C100000088FCFF1F88FFFF1F88FCFF1F60
:1006F000002053490860012000045149C039486076
:10070000062050490870002048700846C0788006CE
:10071000800E202108434B49C87080204A49087048
:1007200000BF48488079102108400028F9D000BF58
:10073000444880790C2108400028F9D1704770B5F1
:1007400040480078C0210840002847D13D48007843
:100750000421084000280ED14C033A480078382183
:100760000840C10801208840C5B22946204600F053
:10077000FCF8044601E00124E4033248C078E0219B
:100780000840C106C90E002926D14011030001F01E
:10079000C4FC0805090D1115191D20230520C001F1
:1007A00044431AE005200002444316E00F20C00134
:1007B000444312E00520400244430EE0B72080008D
:1007C00044430AE0B720C000444306E01F484443C6
:1007D00003E01F48444300E000BF24E019480078CC
:1007E000C0210840402815D116484078C007C00FE6
:1007F000002802D10124E40315E01248007A0E22F9
:1008000010404208012090400146124800F0ADF827
:10081000044608E00B480078C0210840802801D138
:10082000040200E070BD0648C0384068000F411C5B
:10083000204600F09AF80849086000BFF2E700007F
:10084000008104400040064000500640950800002A
:10085000710B000000093D0020FCFF1FF3B50446AA
:10086000002081B020622046E168884700287AD0C5
:10087000252802D06268A16871E0E1682046002561
:10088000884706460020E0610746A0612A2E0AD06C
:10089000304601F067FC002827D0B8000019303E30
:1008A0000090866119E00298BA00121902C891619D
:1008B00002902046E1688847012F064617D1E0697B
:1008C00000281FDA202085431CE000980A21806957
:1008D000484300998019303888612046E16888478C
:1008E000064601F03FFC0028EFD1012F0AD02E2E42
:1008F00008D12046E16888470646202005437F1C32
:10090000022FC3DBA069002803DA4042A061012066
:100910000543E80701D010208543002E23D0304640
:100920004138192803D80120C0020543203620464B
:1009300025603146029A1546FFF700FC00280BD0CF
:10094000012806D0ED1DE808C000083002908AE7B3
:1009500009E02D1D029586E762683046A168904740
:10096000206A401C7EE7206AFEBD002203098B42FC
:100970002CD3030A8B4211D300239C464EE003463E
:100980000B433CD4002243088B4231D303098B42F2
:100990001CD3030A8B4201D394463FE0C3098B4228
:1009A00001D3CB01C01A524183098B4201D38B0181
:1009B000C01A524143098B4201D34B01C01A524124
:1009C00003098B4201D30B01C01A5241C3088B4269
:1009D00001D3CB00C01A524183088B4201D38B0054
:1009E000C01A524143088B4201D34B00C01A5241F6
:1009F000411A00D201465241104670475DE0CA0FCD
:100A000000D04942031000D34042534000229C468C
:100A100003098B422DD3030A8B4212D3FC22890196
:100A200012BA030A8B420CD3890192118B4208D36C
:100A3000890192118B4204D389013AD0921100E0CE
:100A40008909C3098B4201D3CB01C01A52418309E2
:100A50008B4201D38B01C01A524143098B4201D30F
:100A60004B01C01A524103098B4201D30B01C01A3A
:100A70005241C3088B4201D3CB00C01A52418308B4
:100A80008B4201D38B00C01A5241D9D243088B420A
:100A900001D34B00C01A5241411A00D201466346AD
:100AA00052415B10104601D34042002B00D5494211
:100AB000704763465B1000D3404201B50020C0463A
:100AC000C04602BD7047704770470000F0B50C4645
:100AD000871A9C410D46861A9D4103D2C01BA14135
:100AE000D21963410D0D1F0DC94EEC1BAE435CD0F6
:100AF0007F057F0D0026002F51D02D05AC46A94360
:100B0000DD020123ED0A1B051D4320231B1B24D4FA
:100B10001746E740381871412F46E740CC199D40F1
:100B20002818314661410C0D27D161449A4013D5F4
:100B30000023401C594152000ED1400840000122C0
:100B40004B005205D34207D305204007C14201D5CF
:100B5000B04900E0B0493046F0BD6B00002A00D03B
:100B600001229A181F23203C1B1B01D5002302E001
:100B7000E540281871410C0DD7D00124240509192E
:100B8000C407CD0740084908E40F28436144002CFE
:100B9000D5D00024401C61419A40D0D1CDE76A05F0
:100BA000520DD9D1C90FC907D5E79C4D4E00002879
:100BB00001D0012400E0002434195F00002A01D094
:100BC000012600E00026BE19954FAC420CD8AE427B
:100BD0000AD8B44206D001256D05EC42BCD01046BF
:100BE0001946F0BD9942FCD000203946F0BDF0B561
:100BF0001FB40C460F46811A9F412546861A9D4117
:100C000006D20125ED076F40401ABC4152187B41C6
:100C1000210D1E0D8D1BAC467D4D8D437ED075057F
:100C20006D0D7CD00D05AE46AC431B031B0B794DFF
:100C300052429D41202366469B1B14D31746F74022
:100C4000381800260090744160462F460741E41989
:100C500000989D402818664116D4714671189A4034
:100C600025D5012320E093182A466A415200002B23
:100C700000D0521C1E23203E9B1B002B61DD354102
:100C8000EE1728186641E8D5001876415B1C9A409B
:100C900000D3401C4B05F3181524E34010D3002B60
:100CA00052D071467118D30FC01802D3491C05B039
:100CB000F0BD0123DB079A42F9D140084000F6E776
:100CC00001225205B21801D1002853D00123CC0AC9
:100CD000DB029943891E002A08D1020C03D0020CC2
:100CE0000004103902E00246002020390023550B91
:100CF00005D112020823550B01D152010D23550CC9
:100D000001D112011B1DD50C01D192009B1C150DA8
:100D100001D152005B1C2025EE1A01E02CE022E0FC
:100D20000546F54015439840CA1AE10769181305AE
:100D3000C918002ABBDA032040070818C10FC907E9
:100D40000FE071466118B2E7F107400808437110DF
:100D500071444A000CD001235B059A42A7D2C90F07
:100D6000C9070020A3E74905490D26D1002001E06D
:100D70000028F4D100219AE7284D6600002801D010
:100D8000012100E0002171185F00002A01D0012636
:100D900000E00026BE19224FA94210D8AE420ED85C
:100DA000B14208D001256D05E94206D01946A802D6
:100DB000414010467BE79C4201D0214677E7002066
:100DC000394674E710B50C465C4005D50124E407AC
:100DD0006340FFF70CFF10BDFFF778FE10BD30B485
:100DE0000C465C4004D50124E407634030BC6DE64A
:100DF00030BCFCE670B50124E40761400D465D405F
:100E000002D4FFF763FE70BD6340FFF7F0FE70BDD4
:100E1000FF0700000000F0FF0000F07F0000E0FF8F
:100E20000000F87FF0B5F94D0C091E092C402E404A
:100E30002F468BB0A7437DD0B543FCD0002E7AD08F
:100E4000002CFCD00D465D40ED0F2543AC1BFF256B
:100E5000AD0464190894C502440DC9022143500D24
:100E6000DC0204430120C00701430443D202019184
:100E7000200C110C00958C46010423468B430A91EB
:100E800061460904E24D8A430991010A7D444919EA
:100E90008039097805464D4301266D18F605751B06
:100EA0006943C90C640B891C4C436418B5012C1BA5
:100EB000250C2E04B4434C434D43210C6918890979
:100EC0000591009DE90701D00121C90704912C4635
:100ED00001996708CD072F434C08059DE10B4D4351
:100EE0002D0C29466646754302950D4645432E4610
:100EF000029D7D1BB44100950D465D4301942C0C71
:100F00002F040D465543AE462D0C3D4302950394E8
:100F10007546049C2D04641B049406D2029C039D18
:100F2000641C002675410395029401AC70CC009FAF
:100F30007D1B01E03EE162E1B441090400950791A7
:100F400001940599A4086143090C0C464443650BC0
:100F5000E7040C4666467443A646640B3C4303957F
:100F600002947446049DE4042C1B049406D2029C53
:100F7000039D641C002675410395029401AC70CC5E
:100F8000009F7D1BB44101940C465C430095650FA6
:100F9000E7000C465443A646640F3C430395029475
:100FA0007446049DE4002C1B049406D2029C039D0D
:100FB000641C002675410395029401AC70CC009F1F
:100FC0007D1BB441AE09AF06049DC900AD092F4396
:100FD000049DA406AD060495079D34436918079146
:100FE000059DE10B4D432D0C294666467543029540
:100FF0000D4645432E46029D7D1BB44100950D468E
:101000005D4301942C0C2F040D465543AE462D0C28
:101010003D43029503947546049C2D04641B04947F
:1010200006D2029C039D641C002675410395029420
:1010300001AC70CC009F7D1BB44101948C050694DB
:10104000079C890A611800950791019C0599A408DD
:101050006143090C0D464543680BEF040D46644699
:1010600065436C0B3C43049FED047D1BAC4602D2F0
:101070000025641C6841009E019D371B8541084680
:10108000584301950C46460FC5005443600F284352
:101090006546E4002C1B02D20025401C6E41019DD8
:1010A0003F1AB5412846BD09800628438446A00959
:1010B000BF064E020699A40676180743079D002036
:1010C00068410A99079019430020099B00906046E7
:1010D000FF1913434041E20F64003A43A44604461B
:1010E000D71A8C41A04203D90120009020463A46ED
:1010F000C70F941840416246D20F224364466400F1
:101100000494009CBE466400D71AA4460446029785
:101110008C417746002F01D1A04204D96046401C83
:101120008446029A2046C40FA64694184041049A69
:101130000546D20F224364466400D31A8D4171469E
:10114000002901D1A84202D928461A46641C10433E
:101150000122002800D0164361020020079B891954
:1011600004465C410223002C02DB4918134664410B
:10117000089DCE0A2D145D194B056705E10A2C0563
:101180000D1908993E43C9076940002B08D09340C8
:1011900006D30022761C5141002B01D1760876003F
:1011A0001C4A002D43DB154241D0AA433FD03046B4
:1011B0000BB0F0BD06180D464D41174C7642AC41C0
:1011C0001AD395181C465C41134A6D42A24113D3B1
:1011D000012252054C00D4420AD15C00D4420BD00B
:1011E0004B4002D592021143E2E749004908DFE78C
:1011F0005940C90FC90718E000200849D8E7054839
:1012000001420DD10342F7D0F2E700000000FF07D2
:10121000201300000000F07F0000E0FF0000F87FD6
:10122000114859400143C01241400020C0E701234A
:10123000089A9B069A4205DC032252078918C90FB7
:10124000C907B5E7052252078918074A1143D21288
:101250005140ADE770B515461C4602460B46284680
:101260002146FFF7DFFD70BDFFFFFF7F1F22030C4C
:1012700002D10F22000402D0030E03D004E00020AC
:10128000014670470002083A030F01D10001121F06
:10129000830F01D18000921E002801DB4000521E06
:1012A000120551184205C012411810467047C10F6F
:1012B000C90700D04042012292071143D6E701211D
:1012C0008907D3E7F0B58B4C0F09254689B0BD439C
:1012D0007BD01D092646AE43FAD00E465E4027401D
:1012E000F60F3E43254071D024012142FBD0FF245C
:1012F000AD19A4042D1B039501252D05DB02DB0A86
:10130000C9022B43C90A29431E010901040F130F07
:10131000050121431701880B820391432D098C4657
:10132000A90B1E438A039543B30B9A0396433F09C7
:10133000BA0B9403A74302962E467E430497B64603
:101340004E19D7190C460196544305977E43371B17
:101350007646BF1B3601B646BE0B3619009676465A
:10136000BC043719009C01D3641C00946400002F56
:1013700001D001263443029E049F754366467E4396
:101380000496760034196E0034190094029C019E74
:101390001C196643751BAE46069465464519059CA7
:1013A00005956C43594375460891691A0191049E4D
:1013B00001465143A41B0491611A009C0791E10668
:1013C00005D061090122114302E072E06EE061097B
:1013D000089D00272C0A2D066918049D7C412A0AC5
:1013E0002D066918019D6241AC0DAD026D18544186
:1013F000079A910D920255196141029A6446584329
:101400005443069B059A5A43121A131B9A0E9B01CA
:101410005B187A41010B0005C3185141220A2006CE
:1014200044195A419A4200D2491C0120400281428B
:1014300003D315230226F64302E014230326F643C2
:101440002020C51AA9401746AF40DA400A4320467B
:101450000399D8400914731819055118039A384391
:10146000D2075140AC4009D00122944006D300225B
:10147000401C5141002C01D1400840001E4A9342BB
:1014800012D3012203989206904207DB0520400701
:1014900009181A480143C012414004E003204007E4
:1014A0000818C10FC907002009B0F0BD0020F107DE
:1014B000FAE705180C464C4111486D42A04115D37E
:1014C00094181A465A410E48644290410ED30120A6
:1014D0004A004005824209D35A00824206D359404D
:1014E000C90F084AC90700201143DDE7002006495B
:1014F000DAE700000000FF07FE070000FFFFFF7FA4
:101500000000E0FF0000F07F0000F87F7047FFB5AB
:101510000C461E468FB003CA089009914F007D0DFE
:1015200000D16D1E002108460020C0460321099A03
:1015300089050840002A03DA820080184008084024
:10154000800D01280A9002DD0020C0430A9008980F
:1015500007430DD0EF48F04928184843071418985E
:1015600000281DD07542291E1DDD0A9842421BE04D
:101570001898012802D00020302104E00020F24316
:1015800005E02154401CB042FBDB30460022189B92
:10159000002121540F998B600A60486013B0F0BDA0
:1015A000BD1B6D1CDFE70A9A002900DA69420BA80F
:1015B00000F05AFA0BAB07CB03AB07C308990998A5
:1015C00000F0B6FA6B4607C30146D4480918002D4F
:1015D00000910ADDD14903980A9A4942401803A9AB
:1015E0000390684600F0C9FC07E003990A9A0818BE
:1015F00003A90390684600F096FC6B4607C30004FD
:10160000000C03D00020C043410800E01046189AA7
:10161000002A03D00022009215461EE0751E05D454
:1016200000F0A0F9303262556D1EF9D50122084351
:10163000079602D000227F1C04E02078302801D1D8
:1016400000227F1E002A069789D01EE0112D07DA9E
:1016500000F088F9303262556D1C02460A43F5D11C
:10166000084303D00098002819D00EE00021681E1E
:1016700005E0235C625C63542254401E491C814295
:10168000F7DBA81B401E07950690079A18990020C3
:10169000A0540F98079B069A81600CC07EE7112624
:1016A000002018905BE7D21DF0B50D460446D10826
:1016B00093B0C90003C90C900D9100F03DFD0246A6
:1016C0000D98C00F01D02D2007E02068810701D5BB
:1016D0002B2002E04007C00F4001032A0F9001D0E9
:1016E000072A05DB03462946204600F079F90EE17A
:1016F0002078800601D5E76900E006272846652D99
:1017000004D0662814D0672D69D12DE00020112F58
:10171000009001DB112300E07B1C0CAA03A910A898
:10172000FFF7F5FE1199002610987D1C0E9142E0FE
:1017300001203B460CAAC0070B900120009003A992
:1017400010A8FFF7E4FE119D1298109900260028BA
:101750000E9501D1781C0D18781B02D446427D1CD1
:10176000761EE81B00903AE0012F00DA01270020E6
:10177000112F009001DD112300E03B460CAA03A9C4
:1017800010A8FFF7C4FE11993D46109800260E914F
:10179000217809070BD40E99A94200DA0D4603A956
:1017A000012D04DD4A19203AD27F302A06D0B842F2
:1017B00001DA011D04DA012100910FE06D1EEFE74F
:1017C000002802DC86192D1A03E0411CA94200DD25
:1017D0000D46801B401C00900120C0070B90207814
:1017E000000705D40098A84202DB0020C043009007
:1017F00069460020C8720B98012102AF0337C90760
:10180000884225D0022010902B2011900B980028A0
:101810000BDA40420B902D20119006E00B9800F05F
:10182000DBFB30317F1E0B9039701099481E002968
:101830001090F3DC0B980028F0D111987F1E3870BF
:101840002088000501D5452000E065207F1E387006
:1018500001A8C01BC01D0B900F98002800D00120CC
:1018600041190098C01709180B980818A169081A9F
:10187000401EA0612078C00602D42046C046C04663
:101880000F98002805D06268A1689047206A401C24
:1018900020622078C00625D52046C046C04621E0FB
:1018A000002E07DB0E98B04204DD03A86268805D5D
:1018B000A16802E06268A16830209047206A761C27
:1018C000401C20620098401E002800900AD100F0C1
:1018D00045F8C06862680168405CA1689047206A6A
:1018E000401C206228466D1E0028D9DC07E0626893
:1018F0003878A1687F1C9047206A401C20620B99B1
:10190000481E00290B90F2DC2046C046C04603204A
:1019100044E6000001FCFFFF104D0000E1DFFFFF87
:1019200001694A1C02610878704700B58FB00291C6
:1019300000210591054901937944039111460490D2
:101940006846FEF78BFF0FB000BD0000E5FFFFFF0C
:101950000A681070521C0A60704700000048704707
:1019600044FCFF1F0B4670B50246890780080843F8
:1019700019469D08141AA9412509080705430809B5
:101980002C194841250A01060D43010A2C19414131
:10199000200C0D0428430D0C00194D410021401965
:1019A0004D41C00869070843E908840F8D002543AD
:1019B000840024184D4124196D41121BAB4107E0EE
:1019C0000925ED432C11521963410024401C61414B
:1019D0001C460A250026551BB441F1D270BD0000FB
:1019E000F8B51F46044601230068DB0203260146C2
:1019F0001840072A05DB002801D017A506E017A527
:101A000004E0002801D016A500E016A510208143AF
:101A10002160A069C01E002FA06101D0401EA061FE
:101A20002046C046C046002F09D038466268A168EB
:101A30009047206A401C2062C01C206206E0206A99
:101A4000FAE762682878A1686D1C9047761EF8D284
:101A50002046C046C046F8BD4E414E006E616E0045
:101A6000494E4600696E6600F7B516468AB02F48A3
:101A700078446C4603467C33C06F5A689B680DC43B
:101A80002A487844763003AC0DC80DC43720C00115
:101A9000081837211B30FEF772FF05460C46803DC3
:101AA0001B3C02D56442012000E000200027099081
:101AB0000FE0E0070BD00C201C49784379443246F4
:101AC0004C394118684600F02EFA6B4607C3641083
:101AD0007F1C002CEDD1154F7F442C3F15E0E8070B
:101AE00011D02001C0190EC8069108930792006812
:101AF000F04201D198190890324606A903A800F0D7
:101B000012FA03AB07C36D10641C002DE7D13246F7
:101B100069460998002803A802D000F02EFA01E0D7
:101B200000F001FA0A9B07C30DB0F0BDBC0700002E
:101B3000034640000A4610B5400D0BD00121C907ED
:101B40000F24A40200191C0364082143540D2143EF
:101B5000D20207E000210120F2E7D40F490021431F
:101B60005200401E0029F8DADB0FDB07184310BDD6
:101B7000FFB50D46144685B04868516800F0B5FAC7
:101B800000910190A868A16800F0AFFA029103905B
:101B9000A868616800F0A9FA029A121882420292BB
:101BA00001D2012000E00020019A0B18D218002871
:101BB000019202D08A4202D903E08A4201D2012076
:101BC00000E000200099081800906868A16800F003
:101BD0008CFA029A12188242029201D2012000E08D
:101BE0000020019A0B18D2180028019202D08A42D4
:101BF00002D903E08A4201D2012000E000200099CE
:101C000008180090286821684000490040084908E9
:101C10004018EE49471814E001994000C90F0843E5
:101C20000090019802994000C90F08430190029862
:101C300003994000C90F08430290039840007F1E9B
:101C4000039000980028E7DA0898002801D0E04EB9
:101C500000E00026B74228DAF71BF806C00E15D0C0
:101C6000029B2021091A039A8B401A430392029A7D
:101C7000019BC2408B401A430292019A009BC240D2
:101C80008B4000991A430192C14000917A110BD008
:101C90006B460320811A01D5002101E089005958C3
:101CA0008700401ED951F5D5374603980299002880
:101CB00000D00120014308980291002808460CD06A
:101CC000002800D001200199019A4905084301210B
:101CD000D20AC902D202019200E001210E9B012228
:101CE000D207012B02D0002B03D013E0002807D12C
:101CF00016E0904204D890420CD1019B0B4209D0CF
:101D0000019B5918019105D10099491C009101D1FD
:101D10007F1C0092002803D0102108460020C046F6
:101D200028682168019B009A4840C10F0598C9079F
:101D300039430EC009B0F0BDFFB587B0099A0898C5
:101D40000899536892684068896896460022039310
:101D500017469446089A12685300099A5B0812685D
:101D6000520052089A1A9B4BD4180A9A002A01D0A2
:101D7000352200E0402206920022012315460492FB
:101D8000DB07059324E0002D05D175460346039E2D
:101D90004D1BB34109D375466646039B491B049D01
:101DA0009841059B7519AC465F4163463B4308D09B
:101DB000059B049EDD0776082E435B080496059379
:101DC00001E0521E641EC50FED0749184041521C28
:101DD000069B9A42D7DB002D04D17546039A6B1AF5
:101DE000824101D203200CE0039A0B466B40424033
:101DF000134303D0014303D0012002E0022000E09E
:101E00000020614601910021009702910A99002962
:101E100005D06146400201436D4B019102E080070D
:101E2000002302909C423ADA1A1BD006C00E15D04D
:101E3000029D2021019C091AC5408C402543029C2B
:101E40008C4000D001242543019C02953D46C440AE
:101E50008D4039462C43C1400194009154111DD04E
:101E60006D460221002202290CD10320001B07E04D
:101E7000002804DB8600AE59002E00D00122401C51
:101E80000328F5DB081B02D588002A5004E08000F7
:101E9000285810438A00A850491EE3D51C460A98CA
:101EA000002802980CD0002800D001200199019A46
:101EB000490508430121D20AC902D202019200E079
:101EC0000121109B0122D207012B02D0002B03D04D
:101ED00013E0002807D116E0904204D890420CD1BC
:101EE000019B0B4209D0019B5918019105D1009922
:101EF000491C009101D1641C0092002803D01021DC
:101F000008460020C04608980999019A00680968A7
:101F100048400099C30F0798DB07234303608260A2
:101F200041600BB0F0BD1FB5002300920A46014688
:101F300001A8FFF71DFE01AB07CB04B010BD1FB514
:101F4000012300920A46014601A8FFF711FE01ABEA
:101F50000F2407CBA402C30F4000DB074008001B7F
:101F6000002900DB0020490000054908CC0A204375
:101F700049051843D20A1143DFE71FB50023009239
:101F80000A46014601A8FFF7D7FE01AB07CBD4E70D
:101F90001FB5012300920A46014601A8FFF7CCFEB7
:101FA00001AB0F2407CBA402C30F4000DB0740089E
:101FB000001B002900DB0020490000054908CC0A6D
:101FC000204349051843D20A1143B6E702C0FFFF78
:101FD000013C0000FF3F000001468008081A02098A
:101FE0001018020A1018020C1018C00882001218EB
:101FF0005200891A01E0401C0A390A29FBD27047B5
:102000000048704724FCFF1F7546FFF7F9FFAE46F6
:10201000050069465346C008C000854618B020B583
:10202000FEF756FB60BC00274908B6460026C0C52F
:10203000C0C5C0C5C0C5C0C5C0C5C0C5C0C5403D80
:1020400049008D4670470446C046C0462046FEF70C
:1020500092F80000024670B50A4392072AD11E4D3D
:10206000EE0104C808C9541B9443344017D0D0B2C1
:10207000D9B2401A2106014310D190B299B2401A48
:10208000210401430AD110021902000A090A401A68
:102090002102014302D1100E190E401A70BD9A425E
:1020A000DFD010BA19BA884201D9012070BD0020D2
:1020B000C04370BD02780B78401C491C002A09D02F
:1020C0009A4207D102780B78401C491C002A01D0A3
:1020D0009A42EFD0D01A70BD0101010101491820C8
:1020E000ABBEFEE7260002007047F8B5040C8BB2C9
:1020F000264682B25E43104658430D0C370C360418
:1021000000218019164679416E43370C3604801938
:10211000264679416E438919F8BD30B47446641E71
:102120002578641CAB4204D3635D5B00E31830BCCC
:1021300018471D46F8E700004900CA020243100094
:1021400000D004204A0D01D001221043044A490D59
:10215000914201D102210843012800D10520704796
:10216000FF07000030380A2801D201207047002004
:102170007047000010B500290AD00878002807D061
:1021800005487844FFF766FF002801D0002010BD05
:102190000248784410BD0000620100005A010000AE
:1021A00003B402487844844603BC6047FFF4FFFF51
:1021B00080807F7E7D7C7B7A797877767675747384
:1021C000727171706F6E6E6D6C6C6B6A6A69686843
:1021D000676666656464636362616160605F5F5ED9
:1021E0005E5D5D5C5C5B5B5A5A595958585757564F
:1021F00056555555545453535252525151505050B4
:102200004F4F4F4E4E4D4D4D4C4C4C4B4B4B4A4A05
:102210004A49494948484847474747464646454549
:102220004544444444434343434242424241414182
:1022300002400000000000A0000000000540000077
:10224000000000C8000000000C4000000000409C9E
:1022500000000000194000000020BCBE000000008B
:1022600034400000BFC91B8E00000004B5400000D0
:10227000504BCFD06607E2CF010000006C41000058
:102280003E8251AADFEEA73401000000D9420000CF
:10229000DCB5A0E23A301F97FFFFFFFFB445000016
:1022A000FD25A0C8E9A3C14FFFFFFFFFFF3F0000CE
:1022B0000000008000000000FF3F000000000080E0
:1022C000000000000023000000FCFF1F24000000AD
:1022D000040100002423000024FCFF1F640300000D
:1022E000200100001C00000043000000F8FFFFFF79
:1022F0000C0000000E0000000F0000002E00000087
:102300000000000001000000D76BBDD66BBDE63FAA
:1023100000000000000000000000000000000000BD
:042320000000800237
:04000005000000C136
:00000001FF
