:020000040000FA
:1000000068FFFF1FB5020000BD020000BF02000034
:1000100000000000000000000000000000000000E0
:10002000000000000000000000000000C10200000D
:100030000000000000000000C3020000C502000034
:10004000C7020000C7020000C7020000C70200008C
:10005000C7020000C7020000C7020000C70200007C
:10006000C7020000C7020000C7020000C70200006C
:10007000C7020000C7020000C7020000C70200005C
:10008000C7020000C7020000C7020000C70200004C
:10009000C7020000C7020000C7020000C70200003C
:1000A000C7020000C7020000C7020000C70200002C
:1000B000C7020000C7020000C7020000C70200001C
:1000C00000F002F800F04BF80CA030C808382418F3
:1000D0002D18A246671EAB4654465D46AC4201D180
:1000E00000F03DF87E460F3E0FCCB6460126334267
:1000F00000D0FB1AA246AB4633431847E407000082
:1001000004080000103A02D378C878C1FAD8520720
:1001100001D330C830C101D504680C6070470000BD
:100120000023002400250026103A01D378C1FBD813
:10013000520700D330C100D50B60704710B5642959
:1001400002D100F01BFA10BD632902D100F075FB4B
:1001500010BD002010BD1FB51FBD10B510BD00F0B3
:100160008CFB1146FFF7F7FF00F024F800F037F999
:1001700003B4FFF7F2FF03BC00F09EFB70B5054629
:100180000C46164602E00FCC0FC5103E102EFAD2D8
:10019000082E02D303CC03C5083E042E07D301CC9E
:1001A00001C5361F03E021782970641C6D1C761E82
:1001B000F9D270BD86B000240025142214A101A834
:1001C000FFF7DCFF00F036F820E00D232A4615A1EA
:1001D00001A800F089F800240BE000BF1348007963
:1001E000802108400028F9D001A8005D0F49C8719E
:1001F000641C01A8005D0028EFD1681CC5B2002076
:1002000001E000BF401C0A498842FAD3DDE7000044
:1002100020202020202020202020202020202020DE
:10022000200000004E3D25642563000000A006402C
:10023000404B4C001C48406B0121890208431A497D
:1002400048630846806B09150843174988630846C8
:10025000406801218906084313494860481513493D
:10026000486088601248C0780C2188431049C870E3
:10027000002008705B2048700846807A40094001E1
:1002800088720846807A0F21084309498872084617
:10029000C07A022108430649C8720846C07808217E
:1002A00008430349C87070470080044000A0044020
:1002B00000A006400748804707480047FEE7FEE7E2
:1002C000FEE7FEE7FEE7FEE704480549034A054B63
:1002D0007047000011040000C100000068FCFF1F0F
:1002E00068FFFF1F68FCFF1F0FB41CB5074B06AA71
:1002F0007B4469460090059800F081FA0020694629
:1003000000F068F81CBC08BC04B01847E10000000D
:10031000F8B50E460446002020622046E168884772
:10032000002829D0252802D06268A16820E0E16871
:1003300020460027884705001ED028464138192846
:1003400002D80127FF022035324620462760294681
:10035000FFF7F4FE002808D0012804D0F61DF608A7
:10036000F6000836D9E7361DD7E762682846A16847
:100370009047206A401CCFE7206AF8BD70B50C4654
:100380000546012A05D02878800600D5EA690023B1
:1003900002E0012305E05B1C934202D2E05C0028EE
:1003A000F9D1A869E618C01AA861286AC01828629D
:1003B0002846C046C04604E06A682078A968641CE4
:1003C0009047B442F8D32846C046C04670BD704737
:1003D000704770470A681070521C0A60704710B569
:1003E0000446C046C0462046FFF7C2FE10BD0000CE
:1003F0000048704704FCFF1F704700000000000029
:10040000FFFFFFFFFFFFFFFFFFFFFFFFFEFFFFFFFD
:10041000002053490860012000045149C039486058
:10042000062050490870002048700846C0788006B1
:10043000800E202108434B49C87080204A4908702B
:1004400000BF48488079102108400028F9D000BF3B
:10045000444880790C2108400028F9D1704770B5D4
:1004600040480078C0210840002847D13D48007826
:100470000421084000280ED14C033A480078382166
:100480000840C10801208840C5B22946204600F036
:10049000ABF8044601E00124E4033248C078E021CF
:1004A0000840C106C90E002926D14011030000F002
:1004B00009FA0805090D1115191D20230520C00191
:1004C00044431AE005200002444316E00F20C00117
:1004D000444312E00520400244430EE0B720800070
:1004E00044430AE0B720C000444306E01F484443A9
:1004F00003E01F48444300E000BF24E019480078AF
:10050000C0210840402815D116484078C007C00FC8
:10051000002802D10124E40315E01248007A0E22DB
:1005200010404208012090400146124800F05CF85B
:10053000044608E00B480078C0210840802801D11B
:10054000040200E070BD0648C0384068000F411C3E
:10055000204600F049F80849086000BFF2E70000B3
:10056000008104400040064000500640950800000D
:10057000710B000000093D0000FCFF1FF7B50025CE
:1005800075291068009914A611D0C046C0460028ED
:1005900002DA404211A608E0009909688A0701D5ED
:1005A0000FA602E0490704D50EA6012501E0C046CA
:1005B000C046009F0024243704E000F04AF930319F
:1005C0003955641C0028F8D12B4632462146009844
:1005D00000F0B7F8FEBD0000000000002D00000094
:1005E0002B00000020000000002203098B422CD3C6
:1005F000030A8B4211D300239C464EE003460B4373
:100600003CD4002243088B4231D303098B421CD3D4
:10061000030A8B4201D394463FE0C3098B4201D3C6
:10062000CB01C01A524183098B4201D38B01C01AFE
:10063000524143098B4201D34B01C01A5241030975
:100640008B4201D30B01C01A5241C3088B4201D324
:10065000CB00C01A524183088B4201D38B00C01AD1
:10066000524143088B4201D34B00C01A5241411AF8
:1006700000D201465241104670475DE0CA0F00D0DB
:100680004942031000D34042534000229C460309D4
:100690008B422DD3030A8B4212D3FC22890112BA5A
:1006A000030A8B420CD3890192118B4208D3890132
:1006B00092118B4204D389013AD0921100E089094A
:1006C000C3098B4201D3CB01C01A524183098B422B
:1006D00001D38B01C01A524143098B4201D34B0114
:1006E000C01A524103098B4201D30B01C01A524177
:1006F000C3088B4201D3CB00C01A524183088B42FE
:1007000001D38B00C01A5241D9D243088B4201D386
:100710004B00C01A5241411A00D201466346524171
:100720005B10104601D34042002B00D54942704770
:1007300063465B1000D3404201B50020C046C0466E
:1007400002BDFFB504460D4681B0243000902168FB
:10075000880604D51022E0699143216000E0012061
:10076000A84201DD471B00E000270498A1697A191F
:100770001018081AA0612078C00602D42046C0468E
:10078000C046002608E003986268A168805D904733
:10079000206A401C761C206204988642F3DB207895
:1007A000C0060AD52046C046C04606E06268A16879
:1007B00030209047206A401C206238467F1E002867
:1007C000F4DC07E000986268A168405D9047206A09
:1007D000401C206228466D1E0028F3DC2046C046DF
:1007E000C0462078000602D5022005B0F0BD0120E9
:1007F000FBE7000001694A1C02610878704700B5F8
:100800008FB002910021059105490193794403912C
:10081000114604906846FFF77BFD0FB000BD000055
:10082000E5FFFFFF10B54369002B02D0C046C0466C
:1008300001E0FFF7A3FD012010BD1278014624312D
:100840000A7000224A700122ECE711680022D243AC
:10085000E8E701468008081A02091018020A101871
:10086000020C1018C008820012185200891A01E008
:10087000401C0A390A29FBD270477546FFF7B8FDBC
:10088000AE46050069465346C008C000854618B00C
:1008900020B5FFF719FD60BC00274908B6460026C1
:1008A000C0C5C0C5C0C5C0C5C0C5C0C5C0C5C0C520
:1008B000403D49008D46704701491820ABBEFEE718
:1008C0002600020030B47446641E2578641CAB42D6
:1008D00004D3635D5B00E31830BC18471D46F8E79E
:1008E0000009000000FCFF1F0400000004010000DC
:1008F0000409000004FCFF1F640300002001000045
:040900000000800271
:04000005000000C136
:00000001FF
